{
  "contractName": "GenericPayment",
  "abi": [
    {
      "anonymous": false,
      "inputs": [
        {
          "indexed": true,
          "internalType": "address",
          "name": "owner",
          "type": "address"
        }
      ],
      "name": "Initialized",
      "type": "event"
    },
    {
      "anonymous": false,
      "inputs": [
        {
          "indexed": true,
          "internalType": "address",
          "name": "previousOwner",
          "type": "address"
        },
        {
          "indexed": true,
          "internalType": "address",
          "name": "newOwner",
          "type": "address"
        }
      ],
      "name": "OwnershipTransferred",
      "type": "event"
    },
    {
      "anonymous": false,
      "inputs": [
        {
          "indexed": false,
          "internalType": "uint256",
          "name": "amount",
          "type": "uint256"
        },
        {
          "indexed": false,
          "internalType": "address",
          "name": "payer",
          "type": "address"
        },
        {
          "indexed": false,
          "internalType": "string",
          "name": "message",
          "type": "string"
        }
      ],
      "name": "Pay",
      "type": "event"
    },
    {
      "inputs": [],
      "name": "initialized",
      "outputs": [
        {
          "internalType": "bool",
          "name": "",
          "type": "bool"
        }
      ],
      "stateMutability": "view",
      "type": "function",
      "constant": true
    },
    {
      "inputs": [],
      "name": "nftAddress",
      "outputs": [
        {
          "internalType": "address",
          "name": "",
          "type": "address"
        }
      ],
      "stateMutability": "view",
      "type": "function",
      "constant": true
    },
    {
      "inputs": [],
      "name": "nftPrice",
      "outputs": [
        {
          "internalType": "uint256",
          "name": "",
          "type": "uint256"
        }
      ],
      "stateMutability": "view",
      "type": "function",
      "constant": true
    },
    {
      "inputs": [],
      "name": "owner",
      "outputs": [
        {
          "internalType": "address",
          "name": "",
          "type": "address"
        }
      ],
      "stateMutability": "view",
      "type": "function",
      "constant": true
    },
    {
      "inputs": [],
      "name": "renounceOwnership",
      "outputs": [],
      "stateMutability": "nonpayable",
      "type": "function"
    },
    {
      "inputs": [
        {
          "internalType": "address",
          "name": "newOwner",
          "type": "address"
        }
      ],
      "name": "transferOwnership",
      "outputs": [],
      "stateMutability": "nonpayable",
      "type": "function"
    },
    {
      "stateMutability": "payable",
      "type": "receive",
      "payable": true
    },
    {
      "inputs": [
        {
          "internalType": "address",
          "name": "owner",
          "type": "address"
        }
      ],
      "name": "initialize",
      "outputs": [],
      "stateMutability": "nonpayable",
      "type": "function"
    },
    {
      "inputs": [
        {
          "internalType": "string",
          "name": "message",
          "type": "string"
        }
      ],
      "name": "pay",
      "outputs": [],
      "stateMutability": "payable",
      "type": "function",
      "payable": true
    },
    {
      "inputs": [
        {
          "internalType": "address payable",
          "name": "_account",
          "type": "address"
        }
      ],
      "name": "withdraw",
      "outputs": [],
      "stateMutability": "nonpayable",
      "type": "function"
    },
    {
      "inputs": [
        {
          "internalType": "address",
          "name": "_newContract",
          "type": "address"
        }
      ],
      "name": "upgradeContract",
      "outputs": [],
      "stateMutability": "nonpayable",
      "type": "function"
    }
  ],
  "bytecode": "0x608060405234801561001057600080fd5b5061002d61002261003260201b60201c565b61003a60201b60201c565b610100565b600033905090565b6000600260009054906101000a900473ffffffffffffffffffffffffffffffffffffffff16905081600260006101000a81548173ffffffffffffffffffffffffffffffffffffffff021916908373ffffffffffffffffffffffffffffffffffffffff1602179055508173ffffffffffffffffffffffffffffffffffffffff168173ffffffffffffffffffffffffffffffffffffffff167f8be0079c531659141344cd1fd0a4f28419497f9722a3daafe3b4186f6b6457e060405160405180910390a35050565b610fa58061010f6000396000f3fe6080604052600436106100955760003560e01c8063715018a611610059578063715018a6146101675780638da5cb5b1461017e578063c4d66de8146101a9578063eb2c0223146101d2578063f2fde38b146101fb5761009c565b80630d39fc81146100a1578063158ef93e146100cc5780632b66d72e146100f757806351cff8d9146101135780635bf8633a1461013c5761009c565b3661009c57005b600080fd5b3480156100ad57600080fd5b506100b6610224565b6040516100c391906107e9565b60405180910390f35b3480156100d857600080fd5b506100e161022a565b6040516100ee919061081f565b60405180910390f35b610111600480360381019061010c9190610994565b61023d565b005b34801561011f57600080fd5b5061013a60048036038101906101359190610a3b565b61027b565b005b34801561014857600080fd5b506101516102f8565b60405161015e9190610a89565b60405180910390f35b34801561017357600080fd5b5061017c61031c565b005b34801561018a57600080fd5b50610193610330565b6040516101a09190610a89565b60405180910390f35b3480156101b557600080fd5b506101d060048036038101906101cb9190610ad0565b61035a565b005b3480156101de57600080fd5b506101f960048036038101906101f49190610ad0565b610413565b005b34801561020757600080fd5b50610222600480360381019061021d9190610ad0565b610427565b005b60005481565b600160009054906101000a900460ff1681565b7f2425c6c914010f26f1adc441e4262a073da36ab2a88590ef6c1037899d5ee35c34338360405161027093929190610b85565b60405180910390a150565b6102836104aa565b6000479050600081116102cb576040517f08c379a00000000000000000000000000000000000000000000000000000000081526004016102c290610c0f565b60405180910390fd5b6102f4818373ffffffffffffffffffffffffffffffffffffffff1661052890919063ffffffff16565b5050565b60018054906101000a900473ffffffffffffffffffffffffffffffffffffffff1681565b6103246104aa565b61032e600061061c565b565b6000600260009054906101000a900473ffffffffffffffffffffffffffffffffffffffff16905090565b600160009054906101000a900460ff16156103aa576040517f08c379a00000000000000000000000000000000000000000000000000000000081526004016103a190610c7b565b60405180910390fd5b60018060006101000a81548160ff0219169083151502179055506103cd8161061c565b8073ffffffffffffffffffffffffffffffffffffffff167f908408e307fc569b417f6cbec5d5a06f44a0a505ac0479b47d421a4b2fd6a1e660405160405180910390a250565b61041b6104aa565b610424816106e2565b50565b61042f6104aa565b600073ffffffffffffffffffffffffffffffffffffffff168173ffffffffffffffffffffffffffffffffffffffff160361049e576040517f08c379a000000000000000000000000000000000000000000000000000000000815260040161049590610d0d565b60405180910390fd5b6104a78161061c565b50565b6104b261079b565b73ffffffffffffffffffffffffffffffffffffffff166104d0610330565b73ffffffffffffffffffffffffffffffffffffffff1614610526576040517f08c379a000000000000000000000000000000000000000000000000000000000815260040161051d90610d79565b60405180910390fd5b565b8047101561056b576040517f08c379a000000000000000000000000000000000000000000000000000000000815260040161056290610de5565b60405180910390fd5b60008273ffffffffffffffffffffffffffffffffffffffff168260405161059190610e36565b60006040518083038185875af1925050503d80600081146105ce576040519150601f19603f3d011682016040523d82523d6000602084013e6105d3565b606091505b5050905080610617576040517f08c379a000000000000000000000000000000000000000000000000000000000815260040161060e90610ebd565b60405180910390fd5b505050565b6000600260009054906101000a900473ffffffffffffffffffffffffffffffffffffffff16905081600260006101000a81548173ffffffffffffffffffffffffffffffffffffffff021916908373ffffffffffffffffffffffffffffffffffffffff1602179055508173ffffffffffffffffffffffffffffffffffffffff168173ffffffffffffffffffffffffffffffffffffffff167f8be0079c531659141344cd1fd0a4f28419497f9722a3daafe3b4186f6b6457e060405160405180910390a35050565b6106eb816107a3565b61072a576040517f08c379a000000000000000000000000000000000000000000000000000000000815260040161072190610f4f565b60405180910390fd5b806107577f360894a13ba1a3210667c828492db98dca3e2076cc3735a920a3ca505d382bbc60001b6107c6565b60000160006101000a81548173ffffffffffffffffffffffffffffffffffffffff021916908373ffffffffffffffffffffffffffffffffffffffff16021790555050565b600033905090565b6000808273ffffffffffffffffffffffffffffffffffffffff163b119050919050565b6000819050919050565b6000819050919050565b6107e3816107d0565b82525050565b60006020820190506107fe60008301846107da565b92915050565b60008115159050919050565b61081981610804565b82525050565b60006020820190506108346000830184610810565b92915050565b6000604051905090565b600080fd5b600080fd5b600080fd5b600080fd5b6000601f19601f8301169050919050565b7f4e487b7100000000000000000000000000000000000000000000000000000000600052604160045260246000fd5b6108a182610858565b810181811067ffffffffffffffff821117156108c0576108bf610869565b5b80604052505050565b60006108d361083a565b90506108df8282610898565b919050565b600067ffffffffffffffff8211156108ff576108fe610869565b5b61090882610858565b9050602081019050919050565b82818337600083830152505050565b6000610937610932846108e4565b6108c9565b90508281526020810184848401111561095357610952610853565b5b61095e848285610915565b509392505050565b600082601f83011261097b5761097a61084e565b5b813561098b848260208601610924565b91505092915050565b6000602082840312156109aa576109a9610844565b5b600082013567ffffffffffffffff8111156109c8576109c7610849565b5b6109d484828501610966565b91505092915050565b600073ffffffffffffffffffffffffffffffffffffffff82169050919050565b6000610a08826109dd565b9050919050565b610a18816109fd565b8114610a2357600080fd5b50565b600081359050610a3581610a0f565b92915050565b600060208284031215610a5157610a50610844565b5b6000610a5f84828501610a26565b91505092915050565b6000610a73826109dd565b9050919050565b610a8381610a68565b82525050565b6000602082019050610a9e6000830184610a7a565b92915050565b610aad81610a68565b8114610ab857600080fd5b50565b600081359050610aca81610aa4565b92915050565b600060208284031215610ae657610ae5610844565b5b6000610af484828501610abb565b91505092915050565b600081519050919050565b600082825260208201905092915050565b60005b83811015610b37578082015181840152602081019050610b1c565b83811115610b46576000848401525b50505050565b6000610b5782610afd565b610b618185610b08565b9350610b71818560208601610b19565b610b7a81610858565b840191505092915050565b6000606082019050610b9a60008301866107da565b610ba76020830185610a7a565b8181036040830152610bb98184610b4c565b9050949350505050565b7f47656e657269635061796d656e743a20302062616c616e636500000000000000600082015250565b6000610bf9601983610b08565b9150610c0482610bc3565b602082019050919050565b60006020820190508181036000830152610c2881610bec565b9050919050565b7f436f6e747261637420616c726561647920696e697469616c697a656400000000600082015250565b6000610c65601c83610b08565b9150610c7082610c2f565b602082019050919050565b60006020820190508181036000830152610c9481610c58565b9050919050565b7f4f776e61626c653a206e6577206f776e657220697320746865207a65726f206160008201527f6464726573730000000000000000000000000000000000000000000000000000602082015250565b6000610cf7602683610b08565b9150610d0282610c9b565b604082019050919050565b60006020820190508181036000830152610d2681610cea565b9050919050565b7f4f776e61626c653a2063616c6c6572206973206e6f7420746865206f776e6572600082015250565b6000610d63602083610b08565b9150610d6e82610d2d565b602082019050919050565b60006020820190508181036000830152610d9281610d56565b9050919050565b7f416464726573733a20696e73756666696369656e742062616c616e6365000000600082015250565b6000610dcf601d83610b08565b9150610dda82610d99565b602082019050919050565b60006020820190508181036000830152610dfe81610dc2565b9050919050565b600081905092915050565b50565b6000610e20600083610e05565b9150610e2b82610e10565b600082019050919050565b6000610e4182610e13565b9150819050919050565b7f416464726573733a20756e61626c6520746f2073656e642076616c75652c207260008201527f6563697069656e74206d61792068617665207265766572746564000000000000602082015250565b6000610ea7603a83610b08565b9150610eb282610e4b565b604082019050919050565b60006020820190508181036000830152610ed681610e9a565b9050919050565b7f455243313936373a206e657720696d706c656d656e746174696f6e206973206e60008201527f6f74206120636f6e747261637400000000000000000000000000000000000000602082015250565b6000610f39602d83610b08565b9150610f4482610edd565b604082019050919050565b60006020820190508181036000830152610f6881610f2c565b905091905056fea2646970667358221220120b99a8680f3ab7ff0cdcc67e742618340b43caf0e52b39ed60bb8b1a58ab2464736f6c634300080d0033",
  "immutableReferences": {},
  "source": "pragma solidity ^0.8.13;\n\nimport \"./BaseState.sol\";\nimport \"./ERC1967.sol\";\n\nimport \"@openzeppelin/contracts/access/Ownable.sol\";\nimport \"@openzeppelin/contracts/utils/Address.sol\";\n\ncontract GenericPayment is BaseState, ERC1967, Ownable {\n    using Address for address payable;\n\n    event Initialized(address indexed owner);\n\n    event Pay(\n        uint256 amount,\n        address payer,\n        string message\n    );\n\n    function initialize(address owner) public {\n        require(!initialized, \"Contract already initialized\");\n        initialized = true;\n\n        _transferOwnership(owner);\n\n        emit Initialized(owner);\n    }\n\n    function pay(\n        string memory message\n    ) external payable {\n        emit Pay(msg.value, msg.sender, message);\n    }\n\n    function withdraw(address payable _account) external onlyOwner {\n        uint256 balance = address(this).balance;\n\n        require(balance > 0, \"GenericPayment: 0 balance\");\n        _account.sendValue(balance);\n    }\n\n    function upgradeContract(address _newContract) external onlyOwner {\n        _setImplementation(_newContract);\n    }\n\n    receive() external payable {}\n}\n",
  "sourcePath": "/home/kubo/paima-cards/contracts/nft/src/GenericPayment.sol",
  "compiler": {
    "name": "solc",
    "version": "0.8.13+commit.abaa5c0e.Emscripten.clang"
  },
  "schemaVersion": "3.4.13",
  "updatedAt": "2023-07-28T14:02:42.654Z",
  "networkType": "ethereum",
  "devdoc": {
    "kind": "dev",
    "methods": {
      "owner()": {
        "details": "Returns the address of the current owner."
      },
      "renounceOwnership()": {
        "details": "Leaves the contract without owner. It will not be possible to call `onlyOwner` functions anymore. Can only be called by the current owner. NOTE: Renouncing ownership will leave the contract without an owner, thereby removing any functionality that is only available to the owner."
      },
      "transferOwnership(address)": {
        "details": "Transfers ownership of the contract to a new account (`newOwner`). Can only be called by the current owner."
      }
    },
    "version": 1
  },
  "userdoc": {
    "kind": "user",
    "methods": {},
    "version": 1
  }
}